:020000040800F2
:1000000080060020310200086D0200086F0200081F
:100010007102000873020008750200080000000069
:10002000000000000000000000000000770200084F
:1000300079020008000000007B0200087D02000831
:100040007F0200087F0200087F0200087F0200088C
:100050007F0200087F0200087F0200087F0200087C
:100060007F0200087F0200087F0200087F0200086C
:100070007F0200087F0200087F0200087F0200085C
:100080007F0200087F020008250500087F020008A3
:100090007F0200087F0200087F0200087F0200083C
:1000A0007F0200087F0200087F0200087F0200082C
:1000B0007F0200087F0200087F0200087F0200081C
:1000C0007F0200087F0200087F0200087F0200080C
:1000D0007F0200087F0200087F0200087F020008FC
:1000E0007F0200087F0200087F0200087F020008EC
:1000F0007F0200087F0200087F0200087F020008DC
:100100007F0200087F0200087F0200087F020008CB
:100110007F0200087F0200087F0200087F020008BB
:100120007F0200087F0200087F0200087F020008AB
:100130007F0200087F0200087F0200087F0200089B
:100140007F0200087F0200087F0200087F0200088B
:100150007F0200087F0200087F0200087F0200087B
:100160007F0200087F0200087F0200087F0200086B
:100170007F0200087F0200087F02000800000000E4
:100180007F0200087F02000800F002F800F041F84A
:100190000AA090E8000C82448344AAF10107DA45E2
:1001A00001D100F036F8AFF2090EBAE80F0013F0F3
:1001B000010F18BFFB1A43F001031847F0120000AB
:1001C00010130000103A24BF78C878C1FAD852073B
:1001D00024BF30C830C144BF04680C6070470000C1
:1001E0000023002400250026103A28BF78C1FBD840
:1001F000520728BF30C148BF0B607047642900F028
:10020000A180002070471FB501F026F91FBD10B571
:1002100010BD00F04CF91146FFF7F5FF01F0C8F8EA
:1002200000F06AF903B4FFF7F2FF03BC00F072F9C3
:1002300016481749174B99423CBF50F8042B41F818
:10024000042BF8D314494FF000028B4238BF43F817
:10025000042BFAD3DFF84400016841F47001016017
:10026000BFF34F8FBFF36F8F0D480047FEE7FEE7E8
:10027000FEE7FEE7FEE7FEE7FEE7FEE7FEE7FEE756
:1002800008480949094A0A4B70470000CC14000885
:10029000000000201C0000208006002088ED00E007
:1002A00089010008800000208006002080020020D4
:1002B000800200200FB41CB5074B06AA7B44694698
:1002C0000090059800F0DBF80020694600F0EAF89D
:1002D0001CBC5DF814FB0000E50100002DE9F041B5
:1002E0000E460446002020622046E168884730B36D
:1002F000252805D0D4E901219047206A401CF2E767
:10030000E168204600278847050018D0A5F1410084
:10031000192802D820354FF4006732462946204676
:100320002760FFF76BFF40B1012804D0F61D26F0CF
:1003300007060836D8E7361DD6E72846DAE7206AEA
:10034000BDE8F0812DE9F0410646002410687529CA
:10035000314616A510D0AFF30080002802DA4042E3
:1003600013A507E031688A0701D512A502E0490705
:1003700004D511A5012401E0AFF3008000210A2279
:1003800006F1240709E0B0FBF2FCB0FBF2F302FB3C
:100390001C00303078541846491C0028F3D12346FD
:1003A0002A463046BDE8F04100F00BB800000000DE
:1003B0002D0000002B000000200000007047704757
:1003C00070472DE9F0470D4699469246044600F1E4
:1003D00024080168880604D5E06921F01001216035
:1003E00000E00120A84201DD471B00E00027A169D1
:1003F0007A1902EB0900081AA0612078C00602D41D
:100400002046AFF30080002608E0D4E901211AF865
:1004100006009047206A401C761C20624E45F4DBA3
:100420002078C0060AD52046AFF3008006E0D4E964
:10043000012130209047206A401C2062381EA7F11D
:100440000107F4DC07E0D4E9012118F80500904722
:10045000206A401C2062281EA5F10105F3DC20461D
:10046000AFF300802078000602D50220BDE8F087B7
:100470000120FBE701694A1C02610878704700B55A
:100480008FB0CDE901310021059105497944CDE9CD
:10049000031011466846FFF721FF0FB000BD0000B2
:1004A000E5FFFFFF0A6802F8010B0A607047754616
:1004B00000F02CF8AE4605006946534620F00700D0
:1004C000854618B020B5FFF7DBFEBDE820404FF0B1
:1004D00000064FF000074FF000084FF0000B21F02E
:1004E0000701AC46ACE8C009ACE8C009ACE8C009FB
:1004F000ACE8C0098D46704710B50446AFF30080E4
:100500002046BDE81040FFF78DBE00000048704750
:100510001C00002001491820ABBEFEE726000200A7
:10052000704700001548006800F00400042804D15A
:100530001248006C124908601FE01048006800F083
:100540004000402819D10D48803000680D490860EE
:100550000A48843000680C49086008488830006800
:100560000A49086005488C3000680949086003485A
:10057000006840F00800014908607047000004501E
:100580000000002004000020080000200C000020D3
:100590001000002000B53F48C06C40F400503D49B9
:1005A000C8643D48806820F001003B4988603B48B2
:1005B000406840F48070394948603948006840F428
:1005C00080003549C1F808030846D0F8080320F434
:1005D0007010C1F808030846D0F8080320F4403032
:1005E000C1F808030846D0F8080340F48030C1F889
:1005F00008030846D0F8080320F01F00C1F80803DC
:1006000000F050F82448C06820F018002249C86063
:100610000846C06820F02000C8600846006B20F043
:100620000F0008630846006B20F4F8600863084672
:10063000006B40F0800008630846006B40F4807057
:1006400008630846D0F8B00020F04000C1F8B000C0
:100650000846406920F4E01048610846406940F4CB
:10066000A01048610846C06820F40050C8600846E1
:10067000C06820F44060C8600846806840F001000F
:10068000886000BF0448006800F001000028F9D02D
:1006900000BD0000001002400000045000000140B6
:1006A000080304500C49896801F00051B1F1005F62
:1006B00005D10949896821F00051074A916006492E
:1006C000896841F08051044A91604FF4C86000E0AD
:1006D000401E0028FCD17047000004501848C06C30
:1006E00040F002001649C8641648006820F0300047
:1006F000144908600846006840F01000086011487E
:100700000C30006820F030000E490C3108600C48B5
:10071000C06C40F001000A49C8644FF09040006886
:1007200020F00C004FF0904108600846006840F04F
:100730000C0008600846C06A40F00200C8627047BA
:1007400000100240000400480F48006840F4807028
:100750000D49086000BF0C48006800F48060002864
:10076000F9D00948806820F00300074988600846EE
:10077000806840F00100886000BF0348806800F096
:100780000C000028F9D0704700100240002000BF84
:100790000B49096801F004010029F9D1002006E0A5
:1007A000002207490C3141F82020411CC8B20F2813
:1007B000F6DD0349096841F00401014A1160704700
:1007C000082400402F48806D00F0805028B92D4843
:1007D000806D40F080502B4988652A48806D2A48FA
:1007E000006800F4807060B92748006840F48070A9
:1007F0002549086000BF2448006800F48070002884
:10080000F9D020489030006820F005001D49C1F85B
:1008100090000846D0F8900040F48030C1F8900075
:100820000846D0F8900020F48030C1F8900007E02E
:1008300014489030006840F001001249C1F890005F
:1008400010489030006800F002000028F0D00D48F9
:100850009030006820F440700A49C1F890000846C2
:10086000D0F8900040F48070C1F890000846806D88
:1008700020F0805088650846806D40F400708865DF
:1008800070470000001002400070004024480068DB
:1008900020F06000224908600846006840F04000EF
:1008A00008600846006840F01C00086008460068C0
:1008B00020F010000860081D006840F4E050091D99
:1008C00008600846006840F070000860081F006873
:1008D00020F08000091F08600846006820F0020030
:1008E000086000BF0E480830006800F020000028B3
:1008F000F8D00B48006840F001000949086000BFCB
:1009000007480830006800F001000028F8D000BF58
:1009100003480830006800F010000028F8D0704745
:1009200000240040F0B50C461546002100260022A8
:100930000778332F4FD00FDCA7F12007132F57D2A2
:10094000DFE807F02356565656405656282A253BD0
:100950005638563E46474800392F42D008DCA7F1AA
:100960003407052F44D2DFE807F03738393A3B0027
:100970006E2F19D004DC642F10D06D2F38D110E009
:10098000752F14D0FF2F33D11FE0002149E04AF228
:10099000DD0146E0282144E0112142E04FF473419B
:1009A0003FE04BF210213CE042F2102139E046F2E8
:1009B000840136E04FF4204133E04AF2140130E084
:1009C000C0212EE04FF433412BE04FF6DD7128E0DB
:1009D00000BF00BF00BF00BF00BF00BF00BF00BF1F
:1009E00000BF0778303FDFF868C03CF8171018E008
:1009F00007785B2F08DA0778402F05DD0778413F3D
:100A0000DFF850C03CF8171007787B2F08DA07781A
:100A1000602F05DD0778613FDFF838C03CF817101C
:100A200000BF00BF0CB141F002010DB141F0200147
:100A30000C26002208E041FA06F707F00F079F5442
:100A4000371FFEB2571CFAB2042AF4DBF0BD0000D7
:100A5000961400086214000870B50546FFF796FE6C
:100A6000002406E0E3B228190022114600F0CEF877
:100A7000641C062CF6DB70BD00B500F007F8FFF72C
:100A8000A1FEFFF703FFFFF781FE00BD4E48C06CDB
:100A900040F001004C49C8640846C06C40F00200B8
:100AA000C8640846C06C40F00400C8640846C06CC6
:100AB00040F00800C8644FF0904000684349084087
:100AC0004FF09041086008460068414908434FF0E4
:100AD000904108600846006A40F07F40086208467E
:100AE000006A20F0884008620846406A3949084395
:100AF0004FF0904148620846406A374908404FF03D
:100B000090414862354800683549084033490860DB
:100B10000846006833490843304908602F482030B0
:100B2000006840F0FF102D49203108600846006839
:100B300020F0441008602948406A2B49084327499F
:100B400048620846406A29490840244948622848C2
:100B50000068284908402649086008460068264978
:100B6000084323490860224820300068234908438D
:100B70001F492031086008460068214908401C4987
:100B8000203108601A48406A40F00F01184841625D
:100B9000406A20F00401164841621A48006880B299
:100BA0001849086008460068174908431549086055
:100BB0000846406A4FF0FF3112484162406A00F037
:100BC000BB3110484162704700100240FF0FC03F28
:100BD00000A02A80FF0F00F0BBFBFFBF000400480D
:100BE000F0F0F3000A0A08AAF000FFFFBFFFBBBB4A
:100BF000000800483F00FCFF80AA020000F0FFFF51
:100C0000FFBFBBBB000C00480000AAAAF8B5054610
:100C10000E4617461C466B463A4631462846FFF7B5
:100C200081FE00BFFE48006800F004000028F9D1F2
:100C3000062C7DD2DFE804F00398FCFBFAF9F848B3
:100C40000C300068F7490840F5490C310860F44859
:100C50000838C069F3490840F1490839C8610846B5
:100C6000406AF0490840EE49083948620846C06ABF
:100C7000EC490840EA490839C8629DF80000C007FD
:100C8000C00E9DF80010C1F3400140EAC1509DF82C
:100C90000010C1F3800140EA81509DF80010C1F3BB
:100CA000C00140EAC100DE490C3109680843DC4953
:100CB0000C3108609DF80100C007C00E9DF80110BE
:100CC000C1F3400140EAC1509DF80110C1F3800119
:100CD00040EA81509DF80110C1F3C00140EAC10013
:100CE000CF490839C9690843CD490839C8619DF819
:100CF0000200C007C00E9DF80210C1F3400140EA97
:100D0000C1509DF80210C1F3800140EA81509DF866
:100D10000210C1F3C00140EAC100C1490839496A63
:100D20000843BF49083948629DF80300C00700E046
:100D30002EE3C00E9DF80310C1F3400140EAC150FC
:100D40009DF80310C1F3800140EA81509DF8031023
:100D5000C1F3C00140EAC100B1490839C96A08437A
:100D6000AF490839C86214E3AD480C30006843F25B
:100D700060018843AA490C310860A9480838C06955
:100D800043F260018843A6490839C8610846406AB1
:100D900043F260018843A249083948620846C06AA4
:100DA00043F2600188439E490839C8629DF80000FB
:100DB000C007400E9DF80010C1F3400140EA4130E9
:100DC0009DF80010C1F3800140EA01309DF8001049
:100DD000C1F3C00140EA411091490C310968084350
:100DE0008F490C3108609DF80100C007400E9DF846
:100DF0000110C1F3400140EA41309DF80110C1F3F8
:100E0000800140EA01309DF80110C1F3C00140EAC1
:100E1000411083490839C969084381490839C861C3
:100E20009DF80200C007400E03E028E27CE1CAE022
:100E300036E09DF80210C1F3400140EA41309DF8D0
:100E40000210C1F3800140EA01309DF80210C1F3A5
:100E5000C00140EA411072490839496A08437049A3
:100E6000083948629DF80300C007400E9DF8031042
:100E7000C1F3400140EA41309DF80310C1F3800105
:100E800040EA01309DF80310C1F3C00140EA41106F
:100E900063490839C96A084361490839C86278E278
:100EA0005F480C300068604908405D490C310860BB
:100EB0005B480838C0695C49084059490839C8612D
:100EC0000846406A5849084055490839486208466A
:100ED000C06A5549084052490839C8629DF8000067
:100EE000C007000C9DF80010C1F3400140EA4170BA
:100EF0009DF80010C1F3800140EA01709DF80010D8
:100F0000C1F3C00140EA813045490C31096808430A
:100F100043490C3108609DF80100C007000C9DF8A2
:100F20000110C1F3400140EA41709DF80110C1F386
:100F3000800140EA01709DF80110C1F3C00140EA50
:100F4000813037490839C969084335490839C861CA
:100F50009DF80200C007000C9DF80210C1F340018B
:100F600040EA41709DF80210C1F3800140EA01702F
:100F70009DF80210C1F3C00140EA813028490839C8
:100F8000496A08432649083948629DF80300C007AA
:100F9000000C9DF80310C1F3400140EA41709DF838
:100FA0000310C1F3800140EA01709DF80310C1F302
:100FB000C00140EA81301A490839C96A0843184912
:100FC0000839C862E5E116480C30006820F040405E
:100FD00013490C31086012480838806920F0030179
:100FE0000F4808388161C06920F040410C4808383A
:100FF000C161006A20F00301094808380162406AB3
:1010000020F04041064808384162806A20F0030120
:10101000034808388162C06A20F04041004805E07A
:1010200008240040E7FF3FFFFF3FFFCF0838C162C1
:10103000006B20F00301DC4801639DF80000C0074D
:101040009DF80010C1F3C00140EA8170D649143107
:1010500009680843D449143108609DF80000C0F3C2
:1010600080009DF80010C1F3400140EA4100CE49E4
:1010700089690843CC4988619DF80100C0079DF843
:101080000110C1F3C00140EA8170C749C969084332
:10109000C549C8619DF80100C0F380009DF80110AA
:1010A000C1F3400140EA4100BF49096A0843BE4913
:1010B00008629DF80200C0079DF80210C1F3C0014C
:1010C00040EA8170B849496A0843B74948629DF8C7
:1010D0000200C0F380009DF80210C1F3400140EA15
:1010E0004100B149896A0843AF4988629DF803000D
:1010F000C0079DF80310C1F3C00140EA8170AA49FE
:10110000C96A0843A849C8629DF80300C0F380007B
:101110009DF80310C1F3400140EA4100A249096B68
:101120000843A149086334E19F481430006820F067
:1011300040709D49143108609B48806920F00C0183
:1011400099488161C06920F040719748C161006A87
:1011500020F00C0194480162406A20F040719248EE
:101160004162806A20F00C018F488162C06A20F0E1
:1011700040718D48C162006B20F00C018A48016308
:101180009DF80000C0F3400040069DF80010C1F338
:10119000800140EA016084491431096808438249AA
:1011A000143108609DF80000C007000F9DF8001082
:1011B000C1F3C00140EA81007B49896908437A494B
:1011C00088619DF80100C0F3400040069DF80110C1
:1011D000C1F3800140EA01607349C969084372495B
:1011E000C8619DF80100C007000F9DF80110C1F310
:1011F000C00140EA81006C49096A08436A490862F3
:101200009DF80200C0F3400040069DF80210C1F3B3
:10121000800140EA01606449496A084362494862C2
:101220009DF80200C007000F9DF80210C1F3C00135
:1012300040EA81005C49896A08435B4988629DF8FD
:101240000300C0F3400040069DF80310C1F3800185
:1012500040EA01605449C96A08435349C8629DF88D
:101260000300C007000F9DF80310C1F3C00140EA5E
:1012700081004D49096B08434B49086389E04A489E
:10128000143000684949084047491431086046480D
:10129000C069464908404449C8610846406A434914
:1012A0000840414948620846C06A404908403E49F2
:1012B000C8629DF80000C007800B9DF80010C1F3C4
:1012C000400140EA01209DF80010C1F3800140EA8E
:1012D00041209DF80010C1F3C00140EA816032490D
:1012E0001431096808433049143108609DF8010041
:1012F000C007800B9DF80110C1F3400140EA0120B6
:101300009DF80110C1F3800140EA41209DF80110D1
:10131000C1F3C00140EA81602349C96908432249F9
:10132000C8619DF80200C007800B9DF80210C1F350
:10133000400140EA01209DF80210C1F3800140EA1B
:1013400041209DF80210C1F3C00140EA81601649B6
:10135000496A0843144948629DF80300C007800B9E
:101360009DF80310C1F3400140EA01209DF80310ED
:10137000C1F3800140EA41209DF80310C1F3C00190
:1013800040EA81600849C96A08430749C86200E029
:1013900000BF00BF04480830006840F00400024964
:1013A00008310860F8BD000000240040FFFCFDFB90
:1013B000FFF7CAF9FFF706FAFFF75EFBFFF7E6F95A
:1013C000FFF78CF9FFF7E6F81CA0FFF745FB34E0C8
:1013D0001C48806840F004001A49886000BF1A4821
:1013E000006800F004000428F9D11648006C0D21B3
:1013F000B0FBF1F4224615A11548FEF75BFF144837
:10140000FFF72AFB0F48006C0D21B0FBF1F0C82854
:1014100006D91048006840F004000E4908600CE04E
:101420000848006C0D21B0FBF1F0642805D2094892
:10143000006820F0040007490860C9E74C414220D9
:101440003130000000000450000304502564000007
:1014500014000020140400484FF04070E1EE100A20
:10146000704700FE1467001D1447009D009C003F5C
:1014700000FA1400005341980019485A095A005FB5
:1014800000FC015F01FC00AF1404005BC018815A2E
:10149000C9005800C005005F004200F5006700EA7F
:1014A00000AF00BF004600FF00EF0000CC140008B2
:1014B000000000201C000000C4010008E81400081F
:1014C0001C00002064060000E0010008000000008D
:1014D000000000000000000000000000000000000C
:0814E000202020202020000044
:040000050800018965
:00000001FF
