:020000040800F2
:10000000D0060020390200087502000877020008B7
:10001000790200087B0200087D0200080000000051
:100020000000000000000000000000007F02000847
:100030008102000800000000830200088502000819
:10004000870200088702000887020008870200086C
:10005000870200088702000887020008870200085C
:10006000870200088702000887020008870200084C
:10007000870200088702000887020008870200083C
:10008000870200088702000887020008870200082C
:10009000870200088702000887020008870200081C
:1000A000870200088702000887020008870200080C
:1000B00087020008870200088702000887020008FC
:1000C00087020008870200088702000887020008EC
:1000D00087020008870200088702000887020008DC
:1000E00087020008870200088702000887020008CC
:1000F00087020008870200088702000887020008BC
:1001000087020008870200088702000887020008AB
:10011000870200088702000887020008870200089B
:10012000870200088702000887020008870200088B
:10013000870200088702000887020008870200087B
:10014000870200088702000887020008870200086B
:10015000870200088702000887020008870200085B
:10016000870200088702000887020008870200084B
:1001700087020008870200088702000800000000CC
:10018000870200088702000800F002F800F045F836
:100190000AA090E8000C82448344AAF10107DA45E2
:1001A00001D100F03AF8AFF2090EBAE80F0013F0EF
:1001B000010F18BFFB1A43F001031847AC170000EA
:1001C000CC170000103A24BF78C878C1FAD852077B
:1001D00024BF30C830C144BF04680C6070470000C1
:1001E0000023002400250026103A28BF78C1FBD840
:1001F000520728BF30C148BF0B6070471FB501F0E0
:1002000089FB00F02BF904000020002101F00EFA18
:10021000401C60601FBD10B510BD00F0F9F811461C
:10022000FFF7ECFF01F028F900F02AF903B4FFF71B
:10023000F2FF03BC00F06EF916481749174B9942BC
:100240003CBF50F8042B41F8042BF8D314494FF06D
:1002500000028B4238BF43F8042BFAD3DFF8440086
:10026000016841F470010160BFF34F8FBFF36F8FDE
:100270000D480047FEE7FEE7FEE7FEE7FEE7FEE784
:10028000FEE7FEE7FEE7FEE708480949094A0A4B90
:1002900070470000981A0008000000203800002075
:1002A000D006002088ED00E089010008D000002081
:1002B000D0060020D0020020D002002070B50646F3
:1002C00000F00CF80468054630460A22002100F0D0
:1002D00009F82C6070BD7047704770470048704740
:1002E0006C0000202DE9F04791460F4680460446F9
:1002F000002614F8015B2DB100F030F80068405D75
:10030000C007F6D12B2D02D02D2D18D0641E4A46E1
:100310003946204600F02AF827B13968A14201D1B8
:10032000C7F800804FF0020471050BD54042002849
:1003300003DDFFF7D3FF0460A007BDE8F08746F4B4
:100340008066E4E70028F8DAFFF7C8FF04606FF082
:100350000040F2E7004870476C00002010B500F044
:100360007DF8001D10BD00BFC51200002DE9F05F33
:10037000824615468B4600270AF10104B9460078EB
:10038000302801D09DB113E014F8010B0127782823
:1003900003D0582801D045B10AE00DB1102D07D186
:1003A000002714F8010B102502E0082500E00A25BB
:1003B0000026B0460EE005FB080005FB06F101270C
:1003C0001FFA80F801EB1046B6F5803F00D3B9461E
:1003D00014F8010B294600F045F80028EBDABBF1D0
:1003E000000F05D00FB1641E00E05446CBF800406A
:1003F000B9F1000F06D0FFF771FF02210160C81E9E
:1004000000F003B848EA0640FAE730BCBDE8C09FF8
:100410007546FFF79FFFAE4605006946534620F03C
:100420000700854618B020B5FFF72EFFBDE8204035
:100430004FF000064FF000074FF000084FF0000BA0
:1004400021F00701AC46ACE8C009ACE8C009ACE853
:10045000C009ACE8C0098D467047000000487047ED
:100460008C0000203A2800D2303820F02002412AA7
:1004700001D3A2F13700884201D34FF0FF3070471B
:1004800010B50446AFF300802046BDE81040FFF7EA
:10049000CDBE00004FF0013C50F8042B51F8043B56
:1004A0009A4221D1A2EB0C03934313EACC1317D148
:1004B00050F8042B51F8043B9A4215D1A2EB0C03DF
:1004C000934313EACC130BD150F8042B51F8043B9F
:1004D0009A4209D1A2EB0C03934313EACC13DBD06D
:1004E0004FF00000704700BFD01A01BAB1FA81F195
:1004F00001F0180122FA01F0CB40C1F12001DBB27A
:10050000C0B2C01A2CFA01F3D11A914311EAC311F7
:10051000E6D1704701491820ABBEFEE72600020075
:100520007047000010B52DED048BB0EE408AF0EE60
:10053000608A9FED370B53EC102B51EC180B01F038
:10054000EBF8354A03C20020344908604DE0002032
:100550003349086040E000203249086004E0314837
:100560000068401C2F4908602E48006840F6C411FE
:100570008842F4DB2C48006820F0CC002A4908604F
:100580002748006830B101280BD0022810D003287A
:100590001CD114E02448006840F08400224908601F
:1005A00014E02148006840F088001F4908600DE011
:1005B0001D48006840F048001B49086006E01A48E2
:1005C000006840F044001849086000BF00BF1448AC
:1005D0000068401C12490860114800680428BADB12
:1005E0000E480068401C0D4908600C48006801F086
:1005F0003FF841EC190B084890ED000B53EC102B21
:1006000051EC190B01F04CF8A1D3BDEC048B10BDDB
:1006100058B628166CC1F63F1800002008000020CC
:100620000C000020040000201404004810B52DED3B
:10063000048BB0EE408AF0EE608A9FED450B53ECE0
:10064000102B51EC180B01F067F8434A03C200204D
:100650004249086069E00020414908605CE00020F0
:100660004049086004E03F480068401C3D4908607C
:100670003C48006840F6C4118842F4DB3A48006800
:1006800020F0CC00384908603548006808283DD281
:10069000DFE800F0040B121920272E3532480068DD
:1006A00040F084003049086030E02F48006840F096
:1006B00080002D49086029E02B48006840F0880040
:1006C0002949086022E02848006840F008002649CF
:1006D00008601BE02448006840F048002249086098
:1006E00014E02148006840F040001F4908600DE018
:1006F0001D48006840F044001B49086006E01A48A5
:10070000006840F004001849086000BF00BF1448AA
:100710000068401C124908601148006808289EDBE8
:100720000E480068401C0D4908600C48006800F045
:100730009FFF41EC190B084890ED000B53EC102B78
:1007400051EC190B00F0ACFF85D3BDEC048B10BD50
:10075000FF44C1166CC1F63F1800002008000020BD
:100760000C0000200400002014040048002000BFFA
:100770000B49096801F004010029F9D1002006E0C5
:10078000002207490C3141F82020411CC8B20F2833
:10079000F6DD0349096841F00401014A1160704720
:1007A000082400402F48806D00F0805028B92D4863
:1007B000806D40F080502B4988652A48806D2A481A
:1007C000006800F4807060B92748006840F48070C9
:1007D0002549086000BF2448006800F480700028A4
:1007E000F9D020489030006820F005001D49C1F87C
:1007F00090000846D0F8900040F48030C1F8900096
:100800000846D0F8900020F48030C1F8900007E04E
:1008100014489030006840F001001249C1F890007F
:1008200010489030006800F002000028F0D00D4819
:100830009030006820F440700A49C1F890000846E2
:10084000D0F8900040F48070C1F890000846806DA8
:1008500020F0805088650846806D40F400708865FF
:1008600070470000001002400070004024480068FB
:1008700020F06000224908600846006840F040000F
:1008800008600846006840F01C00086008460068E0
:1008900020F010000860081D006840F4E050091DB9
:1008A00008600846006840F070000860081F006893
:1008B00020F08000091F08600846006820F0020050
:1008C000086000BF0E480830006800F020000028D3
:1008D000F8D00B48006840F001000949086000BFEB
:1008E00007480830006800F001000028F8D000BF79
:1008F00003480830006800F010000028F8D0704766
:1009000000240040F0B50C461546002100260022C8
:100910000778332F4FD00FDCA7F12007132F57D2C2
:10092000DFE807F02356565656405656282A253BF0
:100930005638563E46474800392F42D008DCA7F1CA
:100940003407052F44D2DFE807F03738393A3B0047
:100950006E2F19D004DC642F10D06D2F38D110E029
:10096000752F14D0FF2F33D11FE0002149E04AF248
:10097000DD0146E0282144E0112142E04FF47341BB
:100980003FE04BF210213CE042F2102139E046F208
:10099000840136E04FF4204133E04AF2140130E0A4
:1009A000C0212EE04FF433412BE04FF6DD7128E0FB
:1009B00000BF00BF00BF00BF00BF00BF00BF00BF3F
:1009C00000BF0778303FDFF868C03CF8171018E028
:1009D00007785B2F08DA0778402F05DD0778413F5D
:1009E000DFF850C03CF8171007787B2F08DA07783B
:1009F000602F05DD0778613FDFF838C03CF817103D
:100A000000BF00BF0CB141F002010DB141F0200167
:100A10000C26002208E041FA06F707F00F079F5462
:100A2000371FFEB2571CFAB2042AF4DBF0BD0000F7
:100A3000521900081E19000870B50546FFF796FE0A
:100A4000002406E0E3B228190022114600F0CEF897
:100A5000641C062CF6DB70BD00B500F007F8FFF74C
:100A6000A1FEFFF703FFFFF781FE00BD4E48C06CFB
:100A700040F001004C49C8640846C06C40F00200D8
:100A8000C8640846C06C40F00400C8640846C06CE6
:100A900040F00800C8644FF09040006843490840A7
:100AA0004FF09041086008460068414908434FF004
:100AB000904108600846006A40F07F40086208469E
:100AC000006A20F0884008620846406A39490843B5
:100AD0004FF0904148620846406A374908404FF05D
:100AE00090414862354800683549084033490860FC
:100AF0000846006833490843304908602F482030D1
:100B0000006840F0FF102D49203108600846006859
:100B100020F0441008602948406A2B4908432749BF
:100B200048620846406A29490840244948622848E2
:100B30000068284908402649086008460068264998
:100B400008432349086022482030006823490843AD
:100B50001F492031086008460068214908401C49A7
:100B6000203108601A48406A40F00F01184841627D
:100B7000406A20F00401164841621A48006880B2B9
:100B80001849086008460068174908431549086075
:100B90000846406A4FF0FF3112484162406A00F057
:100BA000BB3110484162704700100240FF0FC03F48
:100BB00000A02A80FF0F00F0BBFBFFBF000400482D
:100BC000F0F0F3000A0A08AAF000FFFFBFFFBBBB6A
:100BD000000800483F00FCFF80AA020000F0FFFF71
:100BE000FFBFBBBB000C00480000AAAAF8B5054631
:100BF0000E4617461C466B463A4631462846FFF7D6
:100C000081FE00BFFE48006800F004000028F9D112
:100C1000062C7DD2DFE804F00398FCFBFAF9F848D3
:100C20000C300068F7490840F5490C310860F44879
:100C30000838C069F3490840F1490839C8610846D5
:100C4000406AF0490840EE49083948620846C06ADF
:100C5000EC490840EA490839C8629DF80000C0071D
:100C6000C00E9DF80010C1F3400140EAC1509DF84C
:100C70000010C1F3800140EA81509DF80010C1F3DB
:100C8000C00140EAC100DE490C3109680843DC4973
:100C90000C3108609DF80100C007C00E9DF80110DE
:100CA000C1F3400140EAC1509DF80110C1F3800139
:100CB00040EA81509DF80110C1F3C00140EAC10033
:100CC000CF490839C9690843CD490839C8619DF839
:100CD0000200C007C00E9DF80210C1F3400140EAB7
:100CE000C1509DF80210C1F3800140EA81509DF887
:100CF0000210C1F3C00140EAC100C1490839496A84
:100D00000843BF49083948629DF80300C00700E066
:100D10002EE3C00E9DF80310C1F3400140EAC1501C
:100D20009DF80310C1F3800140EA81509DF8031043
:100D3000C1F3C00140EAC100B1490839C96A08439A
:100D4000AF490839C86214E3AD480C30006843F27B
:100D500060018843AA490C310860A9480838C06975
:100D600043F260018843A6490839C8610846406AD1
:100D700043F260018843A249083948620846C06AC4
:100D800043F2600188439E490839C8629DF800001B
:100D9000C007400E9DF80010C1F3400140EA413009
:100DA0009DF80010C1F3800140EA01309DF8001069
:100DB000C1F3C00140EA411091490C310968084370
:100DC0008F490C3108609DF80100C007400E9DF866
:100DD0000110C1F3400140EA41309DF80110C1F318
:100DE000800140EA01309DF80110C1F3C00140EAE2
:100DF000411083490839C969084381490839C861E4
:100E00009DF80200C007400E03E028E27CE1CAE042
:100E100036E09DF80210C1F3400140EA41309DF8F0
:100E20000210C1F3800140EA01309DF80210C1F3C5
:100E3000C00140EA411072490839496A08437049C3
:100E4000083948629DF80300C007400E9DF8031062
:100E5000C1F3400140EA41309DF80310C1F3800125
:100E600040EA01309DF80310C1F3C00140EA41108F
:100E700063490839C96A084361490839C86278E298
:100E80005F480C300068604908405D490C310860DB
:100E90005B480838C0695C49084059490839C8614D
:100EA0000846406A5849084055490839486208468A
:100EB000C06A5549084052490839C8629DF8000087
:100EC000C007000C9DF80010C1F3400140EA4170DA
:100ED0009DF80010C1F3800140EA01709DF80010F8
:100EE000C1F3C00140EA813045490C31096808432B
:100EF00043490C3108609DF80100C007000C9DF8C3
:100F00000110C1F3400140EA41709DF80110C1F3A6
:100F1000800140EA01709DF80110C1F3C00140EA70
:100F2000813037490839C969084335490839C861EA
:100F30009DF80200C007000C9DF80210C1F34001AB
:100F400040EA41709DF80210C1F3800140EA01704F
:100F50009DF80210C1F3C00140EA813028490839E8
:100F6000496A08432649083948629DF80300C007CA
:100F7000000C9DF80310C1F3400140EA41709DF858
:100F80000310C1F3800140EA01709DF80310C1F322
:100F9000C00140EA81301A490839C96A0843184932
:100FA0000839C862E5E116480C30006820F040407E
:100FB00013490C31086012480838806920F0030199
:100FC0000F4808388161C06920F040410C4808385A
:100FD000C161006A20F00301094808380162406AD3
:100FE00020F04041064808384162806A20F0030141
:100FF000034808388162C06A20F04041004805E09B
:1010000008240040E7FF3FFFFF3FFFCF0838C162E1
:10101000006B20F00301DC4801639DF80000C0076D
:101020009DF80010C1F3C00140EA8170D649143127
:1010300009680843D449143108609DF80000C0F3E2
:1010400080009DF80010C1F3400140EA4100CE4904
:1010500089690843CC4988619DF80100C0079DF863
:101060000110C1F3C00140EA8170C749C969084352
:10107000C549C8619DF80100C0F380009DF80110CA
:10108000C1F3400140EA4100BF49096A0843BE4933
:1010900008629DF80200C0079DF80210C1F3C0016C
:1010A00040EA8170B849496A0843B74948629DF8E7
:1010B0000200C0F380009DF80210C1F3400140EA35
:1010C0004100B149896A0843AF4988629DF803002D
:1010D000C0079DF80310C1F3C00140EA8170AA491E
:1010E000C96A0843A849C8629DF80300C0F380009C
:1010F0009DF80310C1F3400140EA4100A249096B89
:101100000843A149086334E19F481430006820F087
:1011100040709D49143108609B48806920F00C01A3
:1011200099488161C06920F040719748C161006AA7
:1011300020F00C0194480162406A20F0407192480E
:101140004162806A20F00C018F488162C06A20F001
:1011500040718D48C162006B20F00C018A48016328
:101160009DF80000C0F3400040069DF80010C1F358
:10117000800140EA016084491431096808438249CA
:10118000143108609DF80000C007000F9DF80010A2
:10119000C1F3C00140EA81007B49896908437A496B
:1011A00088619DF80100C0F3400040069DF80110E1
:1011B000C1F3800140EA01607349C969084372497B
:1011C000C8619DF80100C007000F9DF80110C1F330
:1011D000C00140EA81006C49096A08436A49086213
:1011E0009DF80200C0F3400040069DF80210C1F3D4
:1011F000800140EA01606449496A084362494862E3
:101200009DF80200C007000F9DF80210C1F3C00155
:1012100040EA81005C49896A08435B4988629DF81D
:101220000300C0F3400040069DF80310C1F38001A5
:1012300040EA01605449C96A08435349C8629DF8AD
:101240000300C007000F9DF80310C1F3C00140EA7E
:1012500081004D49096B08434B49086389E04A48BE
:10126000143000684949084047491431086046482D
:10127000C069464908404449C8610846406A434934
:101280000840414948620846C06A404908403E4912
:10129000C8629DF80000C007800B9DF80010C1F3E4
:1012A000400140EA01209DF80010C1F3800140EAAE
:1012B00041209DF80010C1F3C00140EA816032492D
:1012C0001431096808433049143108609DF8010061
:1012D000C007800B9DF80110C1F3400140EA0120D6
:1012E0009DF80110C1F3800140EA41209DF80110F2
:1012F000C1F3C00140EA81602349C969084322491A
:10130000C8619DF80200C007800B9DF80210C1F370
:10131000400140EA01209DF80210C1F3800140EA3B
:1013200041209DF80210C1F3C00140EA81601649D6
:10133000496A0843144948629DF80300C007800BBE
:101340009DF80310C1F3400140EA01209DF803100D
:10135000C1F3800140EA41209DF80310C1F3C001B0
:1013600040EA81600849C96A08430749C86200E049
:1013700000BF00BF04480830006840F00400024984
:1013800008310860F8BD000000240040FFFCFDFBB0
:1013900030B50F253648406920F470503449486113
:1013A000002200E0521CFA2AFCDB00BF4FF0904004
:1013B000006900F02E002E28F8D0002200E0521C18
:1013C000FA2AFCDB4FF09040006900F02C002C283A
:1013D00000D100244FF09040006900F02A002A2834
:1013E00000D101244FF09040006900F0260026282B
:1013F00000D102244FF09040006900F00E000E284A
:1014000001D10320044600232DE01948406920F44F
:10141000705017494861184600F0F6F8281A144928
:10142000496941EA802012494861002200E0521CCB
:1014300040F6C4108242FADB4FF09040006900F0A1
:101440002E002E280CD000BF4FF09040006900F015
:101450002E002E28F8D1074800EB8300005D30BD38
:10146000581CC0B20346042BCFDB00BFF7E70000D7
:1014700000100048200000205548006840F0DB00C4
:1014800053490860FFF78EF9FFF7E6FAFFF76EF9A8
:101490005048C06C40F010004E49C8644E48006887
:1014A00020F07F604C4908600846006840F0AA6060
:1014B00008604FF09040006840F6FC4188434FF0D0
:1014C00090410860454800684FF2F0018843434965
:1014D00008600846006845F2500108433F4908602B
:1014E0003D48C06820F07F603B49C8606FE0FFF76F
:1014F0004FFF3B4908703B48FEF7E0FE044600F012
:10150000B7F8394A03C23648007823281DD02A2864
:1015100004D0412813D042281CD10AE020203149B0
:10152000324A1278885431480078401E2F4908709A
:1015300028E02D4890ED000BFEF7F4FF22E02A484A
:1015400090ED000BFFF772F81CE09FED290BFEF702
:10155000E9FF17E0224800782249244A127888548B
:101560000021204A21480078401C11541F4800786F
:10157000401C1E49087008460078302801DB002016
:10158000087000BF00BF1748007834281CD11548E8
:101590004078322818D113488078302814D1114867
:1015A000FFF74AFA00201449086004E01248006876
:1015B000401C114908601048006810498842F5DB5A
:1015C0000FA0FFF739FA02E00648FFF735FA8EE779
:1015D0002428004000100240001000480004004889
:1015E00034000020380000201000002035000020CA
:1015F00000000000008076400000002048E8010064
:101600005757454544210000014609B9012070475C
:10161000012901D10220FAE7022901D10420F6E7CD
:10162000032901D10820F2E700BFF0E710B5002937
:101630000AD00878002807D005487844FEF72AFF2A
:10164000002801D0002010BD0248784410BD0000E1
:101650004E03000046030000491058BFC1F140414D
:101660005B1058BFC3F140438B42EFF300807047DB
:1016700010F0004248BF4042B0FA80F310FA03F184
:101680000AD0C3F11D0303F580634FEA415002EB1A
:10169000035202EBD12170474FF000007047000069
:1016A00051EA030C17D41CF5801F58BFBCF5801FEE
:1016B00000F10680994218BF704708BF90427047FA
:1016C00007D711F5801F58BF13F5801F19D4994211
:1016D0007047894270471CF5801F08D5BCF5801FF4
:1016E000F7D58B4218BF704708BF824270474FF44E
:1016F000001C1CEB410F38BF1CEB430F01D28B4287
:10170000704770B500F0B2F8922449004FF00051D4
:101710004FF08053FFF7A0BFDFF848C170B51CEA57
:10172000111E1EBF1CEA13159EEA0C0F95EA0C0F42
:1017300000F06F8081EA030423EA4C134EEAD47E62
:1017400021EA4C1141F4801143F48013AE44A1FB13
:10175000024CA0FB0365AEF17F7E361955EB0C05FC
:10176000A1FB034C4CF10003A0FB021C16EB0C0682
:10177000654153F10003094218BF46F0010613F416
:10178000007F0BD14FEA03314FEA0530340341EAC1
:10179000155140EA16506FF003020AE04FEAC321E8
:1017A0004FEAC520F40241EA555140EA56506FF025
:1017B000020202EB2E4201EB025585EACE710AD0FD
:1017C0005FEA440C18BF24F0004450F1000041F1DE
:1017D000000120EAD47040F2FE7C624500D270BD68
:1017E000A84214BF4FF080444FF04044002E08BF81
:1017F0000024BEF1806FA8BFA1F1C041BDE87040D8
:1018000080F282804FF0000001F1C04101F0004100
:1018100070479EEA0C0F0CEA131518BF95EA0C0FDF
:1018200006D04FF0000081EA030E0EF0004170BDBB
:1018300000F01CF88900013E00F007B800F009B87C
:101840004FEA430C5FEA5C5C08D081EA030100F0D8
:101850005BB84FEA410C5FEA5C5CF6D14FF00000E8
:10186000014970470000FF070000F87F0EF1020EEB
:101870002EF0030E5EF8046B364205D4012A43EBCA
:10188000030515F5001F12D8012841EB010C1CF5CA
:10189000001F0CD80ED14FEAD17C15F5001F0CEBC0
:1018A0004C0C0CF1020C08BF4CEBD37C04E04FF065
:1018B000080C01E04FEAD37C0CEB4C0526FA05F648
:1018C00006F00706B6F1040C06D20EEB860CBDE856
:1018D00070404CF0010C6047DFE80CF0090B02028D
:1018E0004FF000414FF00000A1F5002170BD1946F6
:1018F0001046012851EB010418BFD4F5001484BF31
:10190000002001F0004170BD0808A0F500114FEA69
:10191000310170474FF04070E1EE100A704700FE51
:101920001467001D1447009D009C003F00FA14003E
:10193000005341980019485A095A005F00FC015FA2
:1019400001FC00AF1404005BC018815AC9005800A4
:10195000C005005F004200F5006700EA00AF00BF6D
:10196000004600FF00EF0000981A00080000002069
:1019700038000000C4010008D01A00083800002018
:1019800098060000E001000810010000430000007C
:10199000F8FFFFFF00404040404040404040414190
:1019A0004141414040404040404040404040404034
:1019B00040404040400502020202020202020202CE
:1019C00002020202022020202020202020202002CB
:1019D000020202020202909090909090101010105B
:1019E00010101010101010101010101010101010F7
:1019F000020202020202888888888888080808088B
:101A00000808080808080808080808080808080856
:101A1000020202024000000000000000000000007E
:101A200000000000000000000000000000000000B6
:101A300000000000000000000000000000000000A6
:101A40000000000000000000000000000000000096
:101A50000000000000000000000000000000000086
:101A60000000000000000000000000000000000076
:101A70000000000000000000000000000000000066
:101A80000000000000000000000000000000000056
:101A90000000000000000000000000000000000046
:101AA0000000000000000000000000000000000036
:101AB000000000000000000031323341343536426E
:101AC000373839432A302344090A0605000000004C
:040000050800018965
:00000001FF
