:020000040800F2
:10000000680600202902000865020008670200084F
:10001000690200086B0200086D0200080000000081
:100020000000000000000000000000006F02000857
:100030007102000800000000730200083D11000872
:1000400077020008770200087702000877020008AC
:1000500077020008770200083D03000879030008D2
:10006000A903000877020008770200087702000859
:10007000770200087702000877020008770200087C
:10008000770200087702000877020008770200086C
:10009000770200087702000877020008770200085C
:1000A000770200087702000877020008770200084C
:1000B000770200087702000877020008770200083C
:1000C000770200087702000877020008770200082C
:1000D000770200087702000877020008770200081C
:1000E000770200087702000877020008770200080C
:1000F00077020008770200087702000877020008FC
:1001000077020008770200087702000877020008EB
:1001100077020008770200087702000877020008DB
:1001200077020008770200087702000877020008CB
:1001300077020008770200087702000877020008BB
:1001400077020008770200087702000877020008AB
:10015000770200087702000877020008770200089B
:10016000770200087702000877020008770200088B
:1001700077020008770200087702000800000000FC
:10018000770200087702000800F002F800F03CF85F
:100190000AA090E8000C82448344AAF10107DA45E2
:1001A00001D100F031F8AFF2090EBAE80F0013F0F8
:1001B000010F18BFFB1A43F0010318475811000044
:1001C00078110000103A24BF78C878C1FAD85207D5
:1001D00024BF30C830C144BF04680C6070470000C1
:1001E0000023002400250026103A28BF78C1FBD840
:1001F000520728BF30C148BF0B6070471FB501F0E0
:100200005FF81FBD10B510BD00F053F81146FFF7A1
:10021000F5FF00F0F3FF00F071F803B4FFF7F2FF11
:1002200003BC00F079F8000016481749174B9942B3
:100230003CBF50F8042B41F8042BF8D314494FF07D
:1002400000028B4238BF43F8042BFAD3DFF8440096
:10025000016841F470010160BFF34F8FBFF36F8FEE
:100260000D480047FEE7FEE7FEE7FEE7FEE7FEE794
:10027000FEE7FEE7FEE7FEE708480949094A0A4BA0
:100280007047000034130008000000200400002024
:100290006806002088ED00E0890100086800002061
:1002A000680600206802002068020020704770473E
:1002B0007047754600F02CF8AE4605006946534677
:1002C00020F00700854618B020B5FFF7D5FFBDE840
:1002D00020404FF000064FF000074FF000084FF0AD
:1002E000000B21F00701AC46ACE8C009ACE8C0093E
:1002F000ACE8C009ACE8C0098D46704710B50446AB
:10030000AFF300802046BDE81040FFF786BF000035
:10031000004870470400002001491820ABBEFEE7EA
:1003200026000200704700000349086000BF024930
:1003300009680029FBD170470000002010B50A4869
:10034000006800F0010070B10848406980F48070D6
:100350000649486106A000F025FA0348006840F00D
:1003600001000149086010BD14040140001000485C
:1003700043454E544552000010B50848006800F04F
:100380000200022808D106A000F00CFA0348006819
:1003900040F002000149086010BD00001404014053
:1003A0004C4546540000000010B50848006800F0B5
:1003B0000400042808D106A000F0F4F903480068FE
:1003C00040F004000149086010BD00001404014021
:1003D000524947485400000010B53C48006E40F0B8
:1003E00001003A4908663A48806820F00700384919
:1003F00088600846806888600846806820F00F00A2
:1004000088600846806820F0700088600846806830
:1004100088600846806820F00F0088600846806881
:1004200020F4E0608860084680688860084680683C
:1004300020F00F0088602748006840F0010025493F
:1004400008600846006840F002000860084600683E
:1004500040F0040008601F482430006820F00100CC
:100460001C49243108600846006820F0020008603A
:100470000846006820F00400086016480838006844
:1004800040F001001349083908600846006840F050
:10049000020008600846006840F00400086001217E
:1004A000062000F097FE0121072000F093FE0121B5
:1004B000082000F08FFE062000F07EFE072000F0EE
:1004C0007BFE082000F078FE10BD00000010024006
:1004D0000000014008040140002000BF0B490968EA
:1004E00001F004010029F9D1002006E000220749AB
:1004F0000C3141F82020411CC8B20F28F6DD034919
:10050000096841F00401014A116070470824004065
:100510002F48806D00F0805028B92D48806D40F044
:1005200080502B4988652A48806D2A48006800F46D
:10053000807060B92748006840F4807025490860E1
:1005400000BF2448006800F480700028F9D02048DB
:100550009030006820F005001D49C1F89000084661
:10056000D0F8900040F48030C1F890000846D0F8F0
:10057000900020F48030C1F8900007E014489030DB
:10058000006840F001001249C1F890001048903016
:10059000006800F002000028F0D00D48903000689C
:1005A00020F440700A49C1F890000846D0F8900045
:1005B00040F48070C1F890000846806D20F08050B3
:1005C00088650846806D40F40070886570470000BB
:1005D00000100240007000402448006820F06000D5
:1005E000224908600846006840F04000086008465C
:1005F000006840F01C0008600846006820F0100009
:100600000860081D006840F4E050091D08600846B5
:10061000006840F070000860081F006820F080004B
:10062000091F08600846006820F00200086000BF4B
:100630000E480830006800F020000028F8D00B4871
:10064000006840F001000949086000BF0748083011
:10065000006800F001000028F8D000BF034808300F
:10066000006800F010000028F8D070470024004017
:10067000F0B50C4615460021002600220778332FDE
:100680004FD00FDCA7F12007132F57D2DFE807F078
:100690002356565656405656282A253B5638563E1F
:1006A00046474800392F42D008DCA7F13407052F10
:1006B00044D2DFE807F03738393A3B006E2F19D0C3
:1006C00004DC642F10D06D2F38D110E0752F14D0BA
:1006D000FF2F33D11FE0002149E04AF2DD0146E05F
:1006E000282144E0112142E04FF473413FE04BF2F6
:1006F00010213CE042F2102139E046F2840136E05C
:100700004FF4204133E04AF2140130E0C0212EE0E2
:100710004FF433412BE04FF6DD7128E000BF00BFFE
:1007200000BF00BF00BF00BF00BF00BF00BF077811
:10073000303FDFF868C03CF8171018E007785B2FEF
:1007400008DA0778402F05DD0778413FDFF850C011
:100750003CF8171007787B2F08DA0778602F05DD43
:100760000778613FDFF838C03CF8171000BF00BFC2
:100770000CB141F002010DB141F020010C26002224
:1007800008E041FA06F707F00F079F54371FFEB243
:10079000571CFAB2042AF4DBF0BD0000FE12000878
:1007A000CA12000870B50546FFF796FE002406E061
:1007B000E3B228190022114600F0CEF8641C062C82
:1007C000F6DB70BD00B500F007F8FFF7A1FEFFF7FC
:1007D00003FFFFF781FE00BD4E48C06C40F00100F2
:1007E0004C49C8640846C06C40F00200C864084622
:1007F000C06C40F00400C8640846C06C40F00800BB
:10080000C8644FF090400068434908404FF0904161
:10081000086008460068414908434FF0904108606D
:100820000846006A40F07F4008620846006A20F0EF
:10083000884008620846406A394908434FF09041B1
:1008400048620846406A374908404FF09041486284
:100850003548006835490840334908600846006853
:1008600033490843304908602F482030006840F081
:10087000FF102D49203108600846006820F0441020
:1008800008602948406A2B490843274948620846BE
:10089000406A294908402449486228480068284994
:1008A000084026490860084600682649084323494D
:1008B0000860224820300068234908431F4920313E
:1008C000086008460068214908401C49203108603A
:1008D0001A48406A40F00F0118484162406A20F00F
:1008E0000401164841621A48006880B2184908603D
:1008F0000846006817490843154908600846406AD9
:100900004FF0FF3112484162406A00F0BB3110489D
:100910004162704700100240FF0FC03F00A02A80D4
:10092000FF0F00F0BBFBFFBF00040048F0F0F30036
:100930000A0A08AAF000FFFFBFFFBBBB000800487F
:100940003F00FCFF80AA020000F0FFFFFFBFBBBB1F
:10095000000C00480000AAAAF8B505460E46174646
:100960001C466B463A4631462846FFF781FE00BFDB
:10097000FE48006800F004000028F9D1062C7DD262
:10098000DFE804F00398FCFBFAF9F8480C30006843
:10099000F7490840F5490C310860F4480838C06947
:1009A000F3490840F1490839C8610846406AF049EE
:1009B0000840EE49083948620846C06AEC490840D8
:1009C000EA490839C8629DF80000C007C00E9DF8CA
:1009D0000010C1F3400140EAC1509DF80010C1F37E
:1009E000800140EA81509DF80010C1F3C00140EA47
:1009F000C100DE490C3109680843DC490C3108604C
:100A00009DF80100C007C00E9DF80110C1F3400120
:100A100040EAC1509DF80110C1F3800140EA8150C5
:100A20009DF80110C1F3C00140EAC100CF49083967
:100A3000C9690843CD490839C8619DF80200C0075B
:100A4000C00E9DF80210C1F3400140EAC1509DF86C
:100A50000210C1F3800140EA81509DF80210C1F3F9
:100A6000C00140EAC100C1490839496A0843BF4989
:100A7000083948629DF80300C00700E02EE3C00E6D
:100A80009DF80310C1F3400140EAC1509DF80310E6
:100A9000C1F3800140EA81509DF80310C1F3C00109
:100AA00040EAC100B1490839C96A0843AF49083969
:100AB000C86214E3AD480C30006843F2600188431B
:100AC000AA490C310860A9480838C06943F260019E
:100AD0008843A6490839C8610846406A43F2600164
:100AE0008843A249083948620846C06A43F2600157
:100AF00088439E490839C8629DF80000C007400E2F
:100B00009DF80010C1F3400140EA41309DF800100B
:100B1000C1F3800140EA01309DF80010C1F3C0012B
:100B200040EA411091490C31096808438F490C3162
:100B300008609DF80100C007400E9DF80110C1F348
:100B4000400140EA41309DF80110C1F3800140EAC4
:100B500001309DF80110C1F3C00140EA4110834902
:100B60000839C969084381490839C8619DF80200FC
:100B7000C007400E03E028E27CE1CAE036E09DF8C1
:100B80000210C1F3400140EA41309DF80210C1F368
:100B9000800140EA01309DF80210C1F3C00140EA33
:100BA000411072490839496A084370490839486256
:100BB0009DF80300C007400E9DF80310C1F34001EB
:100BC00040EA41309DF80310C1F3800140EA013052
:100BD0009DF80310C1F3C00140EA41106349083990
:100BE000C96A084361490839C86278E25F480C3035
:100BF0000068604908405D490C3108605B4808386E
:100C0000C0695C49084059490839C8610846406ACA
:100C1000584908405549083948620846C06A55494C
:100C2000084052490839C8629DF80000C007000C0E
:100C30009DF80010C1F3400140EA41709DF800109A
:100C4000C1F3800140EA01709DF80010C1F3C001BA
:100C500040EA813045490C310968084343490C3169
:100C600008609DF80100C007000C9DF80110C1F359
:100C7000400140EA41709DF80110C1F3800140EA53
:100C800001709DF80110C1F3C00140EA813037497D
:100C90000839C969084335490839C8619DF8020017
:100CA000C007000C9DF80210C1F3400140EA4170FA
:100CB0009DF80210C1F3800140EA01709DF8021016
:100CC000C1F3C00140EA813028490839496A084324
:100CD0002649083948629DF80300C007000C9DF8BA
:100CE0000310C1F3400140EA41709DF80310C1F3C5
:100CF000800140EA01709DF80310C1F3C00140EA91
:100D000081301A490839C96A084318490839C86244
:100D1000E5E116480C30006820F0404013490C31E2
:100D2000086012480838806920F003010F4808382D
:100D30008161C06920F040410C480838C161006AF7
:100D400020F00301094808380162406A20F0404160
:100D5000064808384162806A20F0030103480838D9
:100D60008162C06A20F04041004805E0082400404C
:100D7000E7FF3FFFFF3FFFCF0838C162006B20F065
:100D80000301DC4801639DF80000C0079DF80010D6
:100D9000C1F3C00140EA8170D649143109680843A3
:100DA000D449143108609DF80000C0F380009DF81C
:100DB0000010C1F3400140EA4100CE49896908436F
:100DC000CC4988619DF80100C0079DF80110C1F36E
:100DD000C00140EA8170C749C9690843C549C86173
:100DE0009DF80100C0F380009DF80110C1F340019F
:100DF00040EA4100BF49096A0843BE4908629DF8BC
:100E00000200C0079DF80210C1F3C00140EA8170E2
:100E1000B849496A0843B74948629DF80200C0F3DF
:100E200080009DF80210C1F3400140EA4100B14941
:100E3000896A0843AF4988629DF80300C0079DF89E
:100E40000310C1F3C00140EA8170AA49C96A08438E
:100E5000A849C8629DF80300C0F380009DF8031004
:100E6000C1F3400140EA4100A249096B0843A1498E
:100E7000086334E19F481430006820F040709D49B9
:100E8000143108609B48806920F00C019948816109
:100E9000C06920F040719748C161006A20F00C01E0
:100EA00094480162406A20F0407192484162806A31
:100EB00020F00C018F488162C06A20F040718D489B
:100EC000C162006B20F00C018A4801639DF80000AC
:100ED000C0F3400040069DF80010C1F3800140EAD5
:100EE000016084491431096808438249143108605B
:100EF0009DF80000C007000F9DF80010C1F3C0016D
:100F000040EA81007B49896908437A4988619DF8F4
:100F10000100C0F3400040069DF80110C1F38001BC
:100F200040EA01607349C96908437249C8619DF884
:100F30000100C007000F9DF80110C1F3C00140EA95
:100F400081006C49096A08436A4908629DF80200F9
:100F5000C0F3400040069DF80210C1F3800140EA52
:100F600001606449496A0843624948629DF8020089
:100F7000C007000F9DF80210C1F3C00140EA8100D4
:100F80005C49896A08435B4988629DF80300C0F3A5
:100F9000400040069DF80310C1F3800140EA016063
:100FA0005449C96A08435349C8629DF80300C00701
:100FB000000F9DF80310C1F3C00140EA81004D49C4
:100FC000096B08434B49086389E04A4814300068BC
:100FD000494908404749143108604648C0694649B4
:100FE00008404449C8610846406A434908404149AD
:100FF00048620846C06A404908403E49C8629DF8B8
:101000000000C007800B9DF80010C1F3400140EACA
:1010100001209DF80010C1F3800140EA41209DF8B5
:101020000010C1F3C00140EA8160324914310968FF
:1010300008433049143108609DF80100C007800B57
:101040009DF80110C1F3400140EA01209DF8011014
:10105000C1F3800140EA41209DF80110C1F3C001B5
:1010600040EA81602349C96908432249C8619DF863
:101070000200C007800B9DF80210C1F3400140EA56
:1010800001209DF80210C1F3800140EA41209DF843
:101090000210C1F3C00140EA81601649496A084361
:1010A000144948629DF80300C007800B9DF80310A7
:1010B000C1F3400140EA01209DF80310C1F3800113
:1010C00040EA41209DF80310C1F3C00140EA81606D
:1010D0000849C96A08430749C86200E000BF00BF69
:1010E00004480830006840F00400024908310860F4
:1010F000F8BD000000240040FFFCFDFB0E48006826
:1011000020F001000C4908600846006840F06000CB
:1011100008600846006840F008000860084600685B
:1011200040F00100086000BF0348006800F00200C2
:101130000028F9D070470000001002400448006801
:1011400020B103480068401E014908607047000054
:101150000000002030B5024600204FF0E021086179
:10116000501E486148170F21002804DB0B071C0E96
:101170000F4B1C5406E00B071D0E0E4B00F00F0426
:10118000241F1D5500BF00204FF0E0218861084654
:10119000006920F0040008610846006940F0020080
:1011A00008610846006940F00100086130BD000098
:1011B00000E400E018ED00E0002809DB00F01F0269
:1011C000012191404209920002F1E022C2F800118F
:1011D0007047000010B5002804DB0A07130E054A0B
:1011E000135406E00A07140E034A00F00F031B1FF6
:1011F000D45410BD00E400E018ED00E0FFF77EFFDE
:101200002C48C06C40F010002A49C8640846C06CE5
:1012100040F00100C8640846C06C40F00200C86499
:101220002548006820F440302349086008460068DB
:1012300040F4803008604FF09040006840F6FF4175
:1012400088434FF0904108601C48006820F030004F
:101250001A4908600846006840F0100008604FF026
:101260009040C06840F6FF4188434FF09041C8600D
:101270000846C06840F6AA0108434FF09041C86094
:10128000FFF746F9FFF79EFAFFF726F940F2E7303D
:10129000FFF760FFFFF7A0F80AE008481430006885
:1012A00080F00400054914310860FA20FFF73CF88B
:1012B000F3E700000010024000100048000400485E
:1012C0004FF04070E1EE100A704700FE1467001DF9
:1012D0001447009D009C003F00FA14000053419801
:1012E0000019485A095A005F00FC015F01FC00AF79
:1012F0001404005BC018815AC9005800C005005F83
:10130000004200F5006700EA00AF00BF004600FFA2
:1013100000EF00003413000800000020040000006B
:10132000C40100083813000804000020640600000F
:08133000E001000800000000CC
:040000050800018965
:00000001FF
